{
  "abi": [
    {
      "inputs": [
        {
          "internalType": "address",
          "name": "tk",
          "type": "address"
        }
      ],
      "stateMutability": "nonpayable",
      "type": "constructor"
    },
    {
      "anonymous": false,
      "inputs": [
        {
          "indexed": true,
          "internalType": "address",
          "name": "previousOwner",
          "type": "address"
        },
        {
          "indexed": true,
          "internalType": "address",
          "name": "newOwner",
          "type": "address"
        }
      ],
      "name": "OwnershipTransferred",
      "type": "event"
    },
    {
      "anonymous": false,
      "inputs": [
        {
          "indexed": true,
          "internalType": "address",
          "name": "owner",
          "type": "address"
        },
        {
          "indexed": true,
          "internalType": "uint256",
          "name": "id",
          "type": "uint256"
        }
      ],
      "name": "ShareCreated",
      "type": "event"
    },
    {
      "anonymous": false,
      "inputs": [
        {
          "indexed": false,
          "internalType": "uint256",
          "name": "id",
          "type": "uint256"
        },
        {
          "indexed": false,
          "internalType": "uint256",
          "name": "side",
          "type": "uint256"
        },
        {
          "indexed": false,
          "internalType": "address",
          "name": "trader",
          "type": "address"
        },
        {
          "indexed": false,
          "internalType": "address",
          "name": "owner",
          "type": "address"
        },
        {
          "indexed": false,
          "internalType": "uint256",
          "name": "amount",
          "type": "uint256"
        },
        {
          "indexed": false,
          "internalType": "uint256",
          "name": "price",
          "type": "uint256"
        },
        {
          "indexed": false,
          "internalType": "uint256",
          "name": "supply",
          "type": "uint256"
        }
      ],
      "name": "Trade",
      "type": "event"
    },
    {
      "inputs": [
        {
          "internalType": "uint256",
          "name": "id",
          "type": "uint256"
        },
        {
          "internalType": "uint256",
          "name": "amount",
          "type": "uint256"
        }
      ],
      "name": "buyShare",
      "outputs": [],
      "stateMutability": "payable",
      "type": "function"
    },
    {
      "inputs": [
        {
          "internalType": "string",
          "name": "_uri",
          "type": "string"
        }
      ],
      "name": "createShare",
      "outputs": [],
      "stateMutability": "nonpayable",
      "type": "function"
    },
    {
      "inputs": [],
      "name": "currentId",
      "outputs": [
        {
          "internalType": "uint256",
          "name": "",
          "type": "uint256"
        }
      ],
      "stateMutability": "view",
      "type": "function"
    },
    {
      "inputs": [
        {
          "internalType": "address",
          "name": "_account",
          "type": "address"
        }
      ],
      "name": "earned",
      "outputs": [
        {
          "internalType": "uint256",
          "name": "",
          "type": "uint256"
        }
      ],
      "stateMutability": "view",
      "type": "function"
    },
    {
      "inputs": [
        {
          "internalType": "uint256",
          "name": "id",
          "type": "uint256"
        },
        {
          "internalType": "string",
          "name": "_uri",
          "type": "string"
        }
      ],
      "name": "editUri",
      "outputs": [],
      "stateMutability": "nonpayable",
      "type": "function"
    },
    {
      "inputs": [
        {
          "internalType": "uint256",
          "name": "",
          "type": "uint256"
        }
      ],
      "name": "epoch",
      "outputs": [
        {
          "internalType": "uint256",
          "name": "",
          "type": "uint256"
        }
      ],
      "stateMutability": "view",
      "type": "function"
    },
    {
      "inputs": [],
      "name": "finishAt",
      "outputs": [
        {
          "internalType": "uint256",
          "name": "",
          "type": "uint256"
        }
      ],
      "stateMutability": "view",
      "type": "function"
    },
    {
      "inputs": [
        {
          "internalType": "uint256",
          "name": "id",
          "type": "uint256"
        },
        {
          "internalType": "uint256",
          "name": "amount",
          "type": "uint256"
        }
      ],
      "name": "getBuyPrice",
      "outputs": [
        {
          "internalType": "uint256",
          "name": "",
          "type": "uint256"
        }
      ],
      "stateMutability": "view",
      "type": "function"
    },
    {
      "inputs": [
        {
          "internalType": "uint256",
          "name": "id",
          "type": "uint256"
        },
        {
          "internalType": "uint256",
          "name": "amount",
          "type": "uint256"
        }
      ],
      "name": "getBuyPriceAfterFee",
      "outputs": [
        {
          "internalType": "uint256",
          "name": "",
          "type": "uint256"
        }
      ],
      "stateMutability": "view",
      "type": "function"
    },
    {
      "inputs": [
        {
          "internalType": "uint256",
          "name": "supply",
          "type": "uint256"
        },
        {
          "internalType": "uint256",
          "name": "amount",
          "type": "uint256"
        }
      ],
      "name": "getPrice",
      "outputs": [
        {
          "internalType": "uint256",
          "name": "",
          "type": "uint256"
        }
      ],
      "stateMutability": "pure",
      "type": "function"
    },
    {
      "inputs": [
        {
          "internalType": "uint256",
          "name": "currentTime",
          "type": "uint256"
        }
      ],
      "name": "getRate",
      "outputs": [
        {
          "internalType": "uint256",
          "name": "",
          "type": "uint256"
        }
      ],
      "stateMutability": "view",
      "type": "function"
    },
    {
      "inputs": [],
      "name": "getReward",
      "outputs": [],
      "stateMutability": "nonpayable",
      "type": "function"
    },
    {
      "inputs": [
        {
          "internalType": "uint256",
          "name": "id",
          "type": "uint256"
        },
        {
          "internalType": "uint256",
          "name": "amount",
          "type": "uint256"
        }
      ],
      "name": "getSellPrice",
      "outputs": [
        {
          "internalType": "uint256",
          "name": "",
          "type": "uint256"
        }
      ],
      "stateMutability": "view",
      "type": "function"
    },
    {
      "inputs": [
        {
          "internalType": "uint256",
          "name": "id",
          "type": "uint256"
        },
        {
          "internalType": "uint256",
          "name": "amount",
          "type": "uint256"
        }
      ],
      "name": "getSellPriceAfterFee",
      "outputs": [
        {
          "internalType": "uint256",
          "name": "",
          "type": "uint256"
        }
      ],
      "stateMutability": "view",
      "type": "function"
    },
    {
      "inputs": [
        {
          "internalType": "uint256",
          "name": "id",
          "type": "uint256"
        },
        {
          "internalType": "address",
          "name": "user",
          "type": "address"
        }
      ],
      "name": "getShareBalance",
      "outputs": [
        {
          "internalType": "uint256",
          "name": "",
          "type": "uint256"
        }
      ],
      "stateMutability": "view",
      "type": "function"
    },
    {
      "inputs": [
        {
          "internalType": "uint256",
          "name": "id",
          "type": "uint256"
        }
      ],
      "name": "getShareInfo",
      "outputs": [
        {
          "internalType": "address",
          "name": "_owner",
          "type": "address"
        },
        {
          "internalType": "uint256",
          "name": "_totalSupply",
          "type": "uint256"
        },
        {
          "internalType": "string",
          "name": "_uri",
          "type": "string"
        }
      ],
      "stateMutability": "view",
      "type": "function"
    },
    {
      "inputs": [],
      "name": "lastTimeRewardApplicable",
      "outputs": [
        {
          "internalType": "uint256",
          "name": "",
          "type": "uint256"
        }
      ],
      "stateMutability": "view",
      "type": "function"
    },
    {
      "inputs": [],
      "name": "owner",
      "outputs": [
        {
          "internalType": "address",
          "name": "",
          "type": "address"
        }
      ],
      "stateMutability": "view",
      "type": "function"
    },
    {
      "inputs": [],
      "name": "protocolFeeDestination",
      "outputs": [
        {
          "internalType": "address",
          "name": "",
          "type": "address"
        }
      ],
      "stateMutability": "view",
      "type": "function"
    },
    {
      "inputs": [],
      "name": "protocolFeePercent",
      "outputs": [
        {
          "internalType": "uint256",
          "name": "",
          "type": "uint256"
        }
      ],
      "stateMutability": "view",
      "type": "function"
    },
    {
      "inputs": [],
      "name": "renounceOwnership",
      "outputs": [],
      "stateMutability": "nonpayable",
      "type": "function"
    },
    {
      "inputs": [],
      "name": "rewardPerEthStored",
      "outputs": [
        {
          "internalType": "uint256",
          "name": "",
          "type": "uint256"
        }
      ],
      "stateMutability": "view",
      "type": "function"
    },
    {
      "inputs": [],
      "name": "rewardPerToken",
      "outputs": [
        {
          "internalType": "uint256",
          "name": "",
          "type": "uint256"
        }
      ],
      "stateMutability": "view",
      "type": "function"
    },
    {
      "inputs": [
        {
          "internalType": "address",
          "name": "",
          "type": "address"
        }
      ],
      "name": "rewards",
      "outputs": [
        {
          "internalType": "uint256",
          "name": "",
          "type": "uint256"
        }
      ],
      "stateMutability": "view",
      "type": "function"
    },
    {
      "inputs": [],
      "name": "rewardsToken",
      "outputs": [
        {
          "internalType": "contract IERC20",
          "name": "",
          "type": "address"
        }
      ],
      "stateMutability": "view",
      "type": "function"
    },
    {
      "inputs": [],
      "name": "royaltyFeePercent",
      "outputs": [
        {
          "internalType": "uint256",
          "name": "",
          "type": "uint256"
        }
      ],
      "stateMutability": "view",
      "type": "function"
    },
    {
      "inputs": [
        {
          "internalType": "uint256",
          "name": "id",
          "type": "uint256"
        },
        {
          "internalType": "uint256",
          "name": "amount",
          "type": "uint256"
        }
      ],
      "name": "sellShare",
      "outputs": [],
      "stateMutability": "nonpayable",
      "type": "function"
    },
    {
      "inputs": [
        {
          "internalType": "address",
          "name": "_protocolFeeDestination",
          "type": "address"
        }
      ],
      "name": "setProtocolFeeDestination",
      "outputs": [],
      "stateMutability": "nonpayable",
      "type": "function"
    },
    {
      "inputs": [
        {
          "internalType": "uint256",
          "name": "_protocolFeePercent",
          "type": "uint256"
        }
      ],
      "name": "setProtocolFeePercent",
      "outputs": [],
      "stateMutability": "nonpayable",
      "type": "function"
    },
    {
      "inputs": [
        {
          "internalType": "uint256",
          "name": "_royaltyFeePercent",
          "type": "uint256"
        }
      ],
      "name": "setRoyaltyFeePercent",
      "outputs": [],
      "stateMutability": "nonpayable",
      "type": "function"
    },
    {
      "inputs": [
        {
          "internalType": "uint256",
          "name": "",
          "type": "uint256"
        }
      ],
      "name": "shareInfo",
      "outputs": [
        {
          "internalType": "address",
          "name": "owner",
          "type": "address"
        },
        {
          "internalType": "uint256",
          "name": "totalSupply",
          "type": "uint256"
        },
        {
          "internalType": "string",
          "name": "uri",
          "type": "string"
        }
      ],
      "stateMutability": "view",
      "type": "function"
    },
    {
      "inputs": [],
      "name": "startTime",
      "outputs": [
        {
          "internalType": "uint256",
          "name": "",
          "type": "uint256"
        }
      ],
      "stateMutability": "view",
      "type": "function"
    },
    {
      "inputs": [],
      "name": "totalVolume",
      "outputs": [
        {
          "internalType": "uint256",
          "name": "",
          "type": "uint256"
        }
      ],
      "stateMutability": "view",
      "type": "function"
    },
    {
      "inputs": [
        {
          "internalType": "address",
          "name": "newOwner",
          "type": "address"
        }
      ],
      "name": "transferOwnership",
      "outputs": [],
      "stateMutability": "nonpayable",
      "type": "function"
    },
    {
      "inputs": [],
      "name": "updatedAt",
      "outputs": [
        {
          "internalType": "uint256",
          "name": "",
          "type": "uint256"
        }
      ],
      "stateMutability": "view",
      "type": "function"
    },
    {
      "inputs": [
        {
          "internalType": "uint256",
          "name": "id",
          "type": "uint256"
        }
      ],
      "name": "uri",
      "outputs": [
        {
          "internalType": "string",
          "name": "",
          "type": "string"
        }
      ],
      "stateMutability": "view",
      "type": "function"
    },
    {
      "inputs": [
        {
          "internalType": "address",
          "name": "",
          "type": "address"
        }
      ],
      "name": "userRewardPerEthPaid",
      "outputs": [
        {
          "internalType": "uint256",
          "name": "",
          "type": "uint256"
        }
      ],
      "stateMutability": "view",
      "type": "function"
    },
    {
      "inputs": [
        {
          "internalType": "address",
          "name": "",
          "type": "address"
        }
      ],
      "name": "userVolume",
      "outputs": [
        {
          "internalType": "uint256",
          "name": "",
          "type": "uint256"
        }
      ],
      "stateMutability": "view",
      "type": "function"
    }
  ],
  "bytecode": {
    "object": "0x60006004556101606040526b0cecb8f27f4200f3a000000060a09081526b052b7d2dcc80cd2e4000000060c0526b033b2e3c9fd0803ce800000060e0526b01f04ef12cb04cf158000000610100526b015b6a759f4835dc24000000610120526b013a542146f830bafc000000610140526200007f90600e9060066200015d565b503480156200008d57600080fd5b506040516200216938038062002169833981016040819052620000b091620001cf565b620000bb336200010d565b600180546001600160a01b0319163317905566b1a2bc2ec5000060038190556002554260058190556007819055620000f890630b48868062000201565b6006556001600160a01b031660805262000229565b600080546001600160a01b038381166001600160a01b0319831681178455604051919092169283917f8be0079c531659141344cd1fd0a4f28419497f9722a3daafe3b4186f6b6457e09190a35050565b828054828255906000526020600020908101928215620001a6579160200282015b82811115620001a657825182906001600160601b03169055916020019190600101906200017e565b50620001b4929150620001b8565b5090565b5b80821115620001b45760008155600101620001b9565b600060208284031215620001e257600080fd5b81516001600160a01b0381168114620001fa57600080fd5b9392505050565b808201808211156200022357634e487b7160e01b600052601160045260246000fd5b92915050565b608051611f1d6200024c600039600081816106480152610fc80152611f1d6000f3fe6080604052600436106102245760003560e01c806378e9792511610123578063adacd487116100ab578063d4d83ec41161006f578063d4d83ec41461066a578063d6e6eb9f14610680578063dca615ed14610696578063e00dd161146106ac578063f2fde38b146106c257600080fd5b8063adacd487146105c1578063c157253d146105e1578063cd3daf9d14610601578063cd9c712114610616578063d1af0c7d1461063657600080fd5b806396411538116100f25780639641153814610514578063a10786b014610541578063a498342114610561578063a6769ef814610581578063aca75a52146105ae57600080fd5b806378e97925146104ab57806380faa57d146104c15780638da5cb5b146104d65780639477d85d146104f457600080fd5b80633d18b912116101b15780635cf4ee91116101755780635cf4ee91146104345780635f81a57c1461045457806367d3b4881461046a578063715018a6146104805780637519ab501461049557600080fd5b80633d18b912146103875780634bcc7d7d1461039c5780634ce7957c146103bc5780635487c577146103f4578063577640941461041457600080fd5b80630700037d116101f85780630700037d146102be5780630e89341c146102eb5780631d92d3b914610318578063298fe880146103475780632e3de7a51461036757600080fd5b80628cc262146102295780630391f64c1461025c5780630519e9751461027c578063063a741f1461029e575b600080fd5b34801561023557600080fd5b50610249610244366004611a9f565b6106e2565b6040519081526020015b60405180910390f35b34801561026857600080fd5b50610249610277366004611aba565b61075f565b34801561028857600080fd5b5061029c610297366004611ae6565b6107b8565b005b3480156102aa57600080fd5b506102496102b9366004611ae6565b610c16565b3480156102ca57600080fd5b506102496102d9366004611a9f565b600a6020526000908152604090205481565b3480156102f757600080fd5b5061030b610306366004611b08565b610cb0565b6040516102539190611b67565b34801561032457600080fd5b50610338610333366004611b08565b610d74565b60405161025393929190611b7a565b34801561035357600080fd5b5061029c610362366004611b08565b610e5a565b34801561037357600080fd5b5061029c610382366004611bf3565b610e67565b34801561039357600080fd5b5061029c610f1f565b3480156103a857600080fd5b5061029c6103b7366004611c35565b611029565b3480156103c857600080fd5b506001546103dc906001600160a01b031681565b6040516001600160a01b039091168152602001610253565b34801561040057600080fd5b5061024961040f366004611b08565b6110d2565b34801561042057600080fd5b5061024961042f366004611b08565b6110f3565b34801561044057600080fd5b5061024961044f366004611ae6565b61120d565b34801561046057600080fd5b50610249600b5481565b34801561047657600080fd5b5061024960065481565b34801561048c57600080fd5b5061029c611324565b3480156104a157600080fd5b5061024960075481565b3480156104b757600080fd5b5061024960055481565b3480156104cd57600080fd5b50610249611338565b3480156104e257600080fd5b506000546001600160a01b03166103dc565b34801561050057600080fd5b5061024961050f366004611ae6565b61134b565b34801561052057600080fd5b5061024961052f366004611a9f565b60096020526000908152604090205481565b34801561054d57600080fd5b5061029c61055c366004611a9f565b611395565b34801561056d57600080fd5b5061029c61057c366004611b08565b6113bf565b34801561058d57600080fd5b5061024961059c366004611a9f565b600c6020526000908152604090205481565b61029c6105bc366004611ae6565b6113cc565b3480156105cd57600080fd5b506103386105dc366004611b08565b61175e565b3480156105ed57600080fd5b506102496105fc366004611ae6565b611813565b34801561060d57600080fd5b50610249611852565b34801561062257600080fd5b50610249610631366004611ae6565b6118b9565b34801561064257600080fd5b506103dc7f000000000000000000000000000000000000000000000000000000000000000081565b34801561067657600080fd5b5061024960085481565b34801561068c57600080fd5b5061024960035481565b3480156106a257600080fd5b5061024960025481565b3480156106b857600080fd5b5061024960045481565b3480156106ce57600080fd5b5061029c6106dd366004611a9f565b611949565b6001600160a01b0381166000908152600a60209081526040808320546009909252822054670de0b6b3a764000090610718611852565b6107229190611c97565b6001600160a01b0385166000908152600c60205260409020546107459190611caa565b61074f9190611cc1565b6107599190611ce3565b92915050565b6000600454831061078b5760405162461bcd60e51b815260040161078290611cf6565b60405180910390fd5b506000828152600d602090815260408083206001600160a01b038516845260010190915290205492915050565b336107c1611852565b6008556107cc611338565b6007556001600160a01b03811615610813576107e7816106e2565b6001600160a01b0382166000908152600a60209081526040808320939093556008546009909152919020555b60045483106108345760405162461bcd60e51b815260040161078290611cf6565b6000838152600d602090815260408083206002810154338552600182019093529220548411156108a65760405162461bcd60e51b815260206004820152601a60248201527f496e73756666696369656e742073686172652062616c616e63650000000000006044820152606401610782565b60008483600201546108b89190611c97565b1161091d5760405162461bcd60e51b815260206004820152602f60248201527f43616e6e6f742073656c6c20616c6c207368617265732c206d757374206c656160448201526e7665206174206c65617374206f6e6560881b6064820152608401610782565b600061093261092c8684611c97565b8661120d565b336000908152600c6020526040812080549293508392909190610956908490611ce3565b9250508190555080600b600082825461096f9190611ce3565b9091555050600354600090670de0b6b3a76400009061098e9084611caa565b6109989190611cc1565b90506000670de0b6b3a7640000600254846109b39190611caa565b6109bd9190611cc1565b9050806109ca8385611c97565b6109d49190611c97565b471015610a185760405162461bcd60e51b8152602060048201526012602482015271496e73756666696369656e742066756e647360701b6044820152606401610782565b336000908152600186016020526040902054610a35908890611c97565b336000908152600187016020526040902055610a518785611c97565b600286015584546040517f09a786993c2becc8264c2a90ccc09ca6a571883f97635cc26ed418876b3bdb0a91610a9d918b9160019133916001600160a01b0316908d908a908c90611d20565b60405180910390a160003382610ab38587611c97565b610abd9190611c97565b604051600081818185875af1925050503d8060008114610af9576040519150601f19603f3d011682016040523d82523d6000602084013e610afe565b606091505b50506001546040519192506000916001600160a01b039091169085908381818185875af1925050503d8060008114610b52576040519150601f19603f3d011682016040523d82523d6000602084013e610b57565b606091505b505087546040519192506000916001600160a01b039091169085908381818185875af1925050503d8060008114610baa576040519150601f19603f3d011682016040523d82523d6000602084013e610baf565b606091505b50509050828015610bbd5750815b8015610bc65750805b610c095760405162461bcd60e51b8152602060048201526014602482015273556e61626c6520746f2073656e642066756e647360601b6044820152606401610782565b5050505050505050505050565b60006004548310610c395760405162461bcd60e51b815260040161078290611cf6565b6000610c458484611813565b90506000670de0b6b3a764000060035483610c609190611caa565b610c6a9190611cc1565b90506000670de0b6b3a764000060025484610c859190611caa565b610c8f9190611cc1565b905080610c9c8385611ce3565b610ca69190611ce3565b9695505050505050565b60606004548210610cd35760405162461bcd60e51b815260040161078290611cf6565b6000828152600d602052604090206003018054610cef90611d5c565b80601f0160208091040260200160405190810160405280929190818152602001828054610d1b90611d5c565b8015610d685780601f10610d3d57610100808354040283529160200191610d68565b820191906000526020600020905b815481529060010190602001808311610d4b57829003601f168201915b50505050509050919050565b60008060606004548410610d9a5760405162461bcd60e51b815260040161078290611cf6565b6000848152600d60205260409020805460028201546003830180546001600160a01b03909316928190610dcc90611d5c565b80601f0160208091040260200160405190810160405280929190818152602001828054610df890611d5c565b8015610e455780601f10610e1a57610100808354040283529160200191610e45565b820191906000526020600020905b815481529060010190602001808311610e2857829003601f168201915b50505050509050935093509350509193909250565b610e626119c2565b600255565b600480546000908152600d6020818152604080842080546001600160a01b0319163390811790915585548552818520908552600190810183528185208190558554855292909152808320600201919091559154815220600301610ecb828483611df7565b5060048054906000610edc83611eb8565b91905055506001600454610ef09190611c97565b60405133907f335b5487495f05d92d4db67accd7283d32ffa24a7eb1d604889b384e4888376290600090a35050565b33610f28611852565b600855610f33611338565b6007556001600160a01b03811615610f7a57610f4e816106e2565b6001600160a01b0382166000908152600a60209081526040808320939093556008546009909152919020555b336000908152600a6020526040902054801561102557336000818152600a602052604080822091909155516340c10f1960e01b81526004810191909152602481018290526001600160a01b037f000000000000000000000000000000000000000000000000000000000000000016906340c10f1990604401600060405180830381600087803b15801561100c57600080fd5b505af1158015611020573d6000803e3d6000fd5b505050505b5050565b600454831061104a5760405162461bcd60e51b815260040161078290611cf6565b6000838152600d60205260409020546001600160a01b031633146110b05760405162461bcd60e51b815260206004820152601760248201527f4f6e6c7920746865206f776e65722063616e20656469740000000000000000006044820152606401610782565b6000838152600d602052604090206003016110cc828483611df7565b50505050565b600e81815481106110e257600080fd5b600091825260209091200154905081565b600080600554836111049190611c97565b905060006301dfe200821015611149576301dfe200600e60008154811061112d5761112d611ed1565b90600052602060002001546111429190611cc1565b9050611206565b6303bfc40082101561116e576301dfe200600e60018154811061112d5761112d611ed1565b63059fa600821015611193576301dfe200600e60028154811061112d5761112d611ed1565b63077f88008210156111b8576301dfe200600e60038154811061112d5761112d611ed1565b63095f6a008210156111dd576301dfe200600e60048154811061112d5761112d611ed1565b630b3f4c00821015611202576301dfe200600e60058154811061112d5761112d611ed1565b5060005b9392505050565b6000808315611268576006611223600186611c97565b61122e906002611caa565b611239906001611ce3565b85611245600182611c97565b61124f9190611caa565b6112599190611caa565b6112639190611cc1565b61126b565b60005b905060008415801561127d5750836001145b6112f25760068461128f600188611c97565b6112999190611ce3565b6112a4906002611caa565b6112af906001611ce3565b6112b98688611ce3565b866112c560018a611c97565b6112cf9190611ce3565b6112d99190611caa565b6112e39190611caa565b6112ed9190611cc1565b6112f5565b60005b905060006113038383611c97565b9050610fa061131a82670de0b6b3a7640000611caa565b610ca69190611cc1565b61132c6119c2565b6113366000611a1c565b565b600061134660065442611a6c565b905090565b6000600454831061136e5760405162461bcd60e51b815260040161078290611cf6565b6000838152600d60205260409020600201546112069061138f908490611c97565b8361120d565b61139d6119c2565b600180546001600160a01b0319166001600160a01b0392909216919091179055565b6113c76119c2565b600355565b336113d5611852565b6008556113e0611338565b6007556001600160a01b03811615611427576113fb816106e2565b6001600160a01b0382166000908152600a60209081526040808320939093556008546009909152919020555b60045483106114485760405162461bcd60e51b815260040161078290611cf6565b6000838152600d60205260409020600281015480151580611472575081546001600160a01b031633145b6114d65760405162461bcd60e51b815260206004820152602f60248201527f4f6e6c792074686520736861726573207375626a6563742063616e206275792060448201526e74686520666972737420736861726560881b6064820152608401610782565b60006114e2828661120d565b336000908152600c6020526040812080549293508392909190611506908490611ce3565b9250508190555080600b600082825461151f9190611ce3565b9091555050600354600090670de0b6b3a76400009061153e9084611caa565b6115489190611cc1565b90506000670de0b6b3a7640000600254846115639190611caa565b61156d9190611cc1565b90508061157a8385611ce3565b6115849190611ce3565b3410156115ca5760405162461bcd60e51b8152602060048201526014602482015273125b9cdd59999a58da595b9d081c185e5b595b9d60621b6044820152606401610782565b3360009081526001860160205260409020546115e7908890611ce3565b3360009081526001870160205260409020556116038785611ce3565b600286015584546040517f09a786993c2becc8264c2a90ccc09ca6a571883f97635cc26ed418876b3bdb0a9161164f918b9160009133916001600160a01b0316908d908a908c90611d20565b60405180910390a16001546040516000916001600160a01b03169084908381818185875af1925050503d80600081146116a4576040519150601f19603f3d011682016040523d82523d6000602084013e6116a9565b606091505b505086546040519192506000916001600160a01b039091169084908381818185875af1925050503d80600081146116fc576040519150601f19603f3d011682016040523d82523d6000602084013e611701565b606091505b5050905081801561170f5750805b6117525760405162461bcd60e51b8152602060048201526014602482015273556e61626c6520746f2073656e642066756e647360601b6044820152606401610782565b50505050505050505050565b600d602052600090815260409020805460028201546003830180546001600160a01b0390931693919261179090611d5c565b80601f01602080910402602001604051908101604052809291908181526020018280546117bc90611d5c565b80156118095780601f106117de57610100808354040283529160200191611809565b820191906000526020600020905b8154815290600101906020018083116117ec57829003601f168201915b5050505050905083565b600060045483106118365760405162461bcd60e51b815260040161078290611cf6565b6000838152600d6020526040902060020154611206908361120d565b6000600b54600003611865575060085490565b600b54600754611873611338565b61187d9190611c97565b611886426110f3565b6118909190611caa565b6118a290670de0b6b3a7640000611caa565b6118ac9190611cc1565b6008546113469190611ce3565b600060045483106118dc5760405162461bcd60e51b815260040161078290611cf6565b60006118e8848461134b565b90506000670de0b6b3a7640000600354836119039190611caa565b61190d9190611cc1565b90506000670de0b6b3a7640000600254846119289190611caa565b6119329190611cc1565b90508061193f8385611c97565b610ca69190611c97565b6119516119c2565b6001600160a01b0381166119b65760405162461bcd60e51b815260206004820152602660248201527f4f776e61626c653a206e6577206f776e657220697320746865207a65726f206160448201526564647265737360d01b6064820152608401610782565b6119bf81611a1c565b50565b6000546001600160a01b031633146113365760405162461bcd60e51b815260206004820181905260248201527f4f776e61626c653a2063616c6c6572206973206e6f7420746865206f776e65726044820152606401610782565b600080546001600160a01b038381166001600160a01b0319831681178455604051919092169283917f8be0079c531659141344cd1fd0a4f28419497f9722a3daafe3b4186f6b6457e09190a35050565b600081831115611a7c5781611206565b5090919050565b80356001600160a01b0381168114611a9a57600080fd5b919050565b600060208284031215611ab157600080fd5b61120682611a83565b60008060408385031215611acd57600080fd5b82359150611add60208401611a83565b90509250929050565b60008060408385031215611af957600080fd5b50508035926020909101359150565b600060208284031215611b1a57600080fd5b5035919050565b6000815180845260005b81811015611b4757602081850181015186830182015201611b2b565b506000602082860101526020601f19601f83011685010191505092915050565b6020815260006112066020830184611b21565b60018060a01b0384168152826020820152606060408201526000611ba16060830184611b21565b95945050505050565b60008083601f840112611bbc57600080fd5b50813567ffffffffffffffff811115611bd457600080fd5b602083019150836020828501011115611bec57600080fd5b9250929050565b60008060208385031215611c0657600080fd5b823567ffffffffffffffff811115611c1d57600080fd5b611c2985828601611baa565b90969095509350505050565b600080600060408486031215611c4a57600080fd5b83359250602084013567ffffffffffffffff811115611c6857600080fd5b611c7486828701611baa565b9497909650939450505050565b634e487b7160e01b600052601160045260246000fd5b8181038181111561075957610759611c81565b808202811582820484141761075957610759611c81565b600082611cde57634e487b7160e01b600052601260045260246000fd5b500490565b8082018082111561075957610759611c81565b60208082526010908201526f125b9d985b1a59081cda185c99481a5960821b604082015260600190565b96875260208701959095526001600160a01b039384166040870152919092166060850152608084019190915260a083015260c082015260e00190565b600181811c90821680611d7057607f821691505b602082108103611d9057634e487b7160e01b600052602260045260246000fd5b50919050565b634e487b7160e01b600052604160045260246000fd5b601f821115611df257600081815260208120601f850160051c81016020861015611dd35750805b601f850160051c820191505b8181101561102057828155600101611ddf565b505050565b67ffffffffffffffff831115611e0f57611e0f611d96565b611e2383611e1d8354611d5c565b83611dac565b6000601f841160018114611e575760008515611e3f5750838201355b600019600387901b1c1916600186901b178355611eb1565b600083815260209020601f19861690835b82811015611e885786850135825560209485019460019092019101611e68565b5086821015611ea55760001960f88860031b161c19848701351681555b505060018560011b0183555b5050505050565b600060018201611eca57611eca611c81565b5060010190565b634e487b7160e01b600052603260045260246000fdfea26469706673582212203bd8dd5fe21e6ba5d2b898d3d7fa0ecdee5570efd53b9fd413ed27e8d3d92bca64736f6c63430008150033",
    "linkReferences": {}
  },
  "methodIdentifiers": {
    "buyShare(uint256,uint256)": "aca75a52",
    "createShare(string)": "2e3de7a5",
    "currentId()": "e00dd161",
    "earned(address)": "008cc262",
    "editUri(uint256,string)": "4bcc7d7d",
    "epoch(uint256)": "5487c577",
    "finishAt()": "67d3b488",
    "getBuyPrice(uint256,uint256)": "c157253d",
    "getBuyPriceAfterFee(uint256,uint256)": "063a741f",
    "getPrice(uint256,uint256)": "5cf4ee91",
    "getRate(uint256)": "57764094",
    "getReward()": "3d18b912",
    "getSellPrice(uint256,uint256)": "9477d85d",
    "getSellPriceAfterFee(uint256,uint256)": "cd9c7121",
    "getShareBalance(uint256,address)": "0391f64c",
    "getShareInfo(uint256)": "1d92d3b9",
    "lastTimeRewardApplicable()": "80faa57d",
    "owner()": "8da5cb5b",
    "protocolFeeDestination()": "4ce7957c",
    "protocolFeePercent()": "d6e6eb9f",
    "renounceOwnership()": "715018a6",
    "rewardPerEthStored()": "d4d83ec4",
    "rewardPerToken()": "cd3daf9d",
    "rewards(address)": "0700037d",
    "rewardsToken()": "d1af0c7d",
    "royaltyFeePercent()": "dca615ed",
    "sellShare(uint256,uint256)": "0519e975",
    "setProtocolFeeDestination(address)": "a10786b0",
    "setProtocolFeePercent(uint256)": "a4983421",
    "setRoyaltyFeePercent(uint256)": "298fe880",
    "shareInfo(uint256)": "adacd487",
    "startTime()": "78e97925",
    "totalVolume()": "5f81a57c",
    "transferOwnership(address)": "f2fde38b",
    "updatedAt()": "7519ab50",
    "uri(uint256)": "0e89341c",
    "userRewardPerEthPaid(address)": "96411538",
    "userVolume(address)": "a6769ef8"
  },
  "id": 61
}